:020000040000FA
:100000000B0000EA050000EA070000EA040000EA2D
:10001000040000EA42000000450600EA590600EA32
:10002000FEFFFFEAFEFFFFEAFEFFFFEAFEFFFFEA38
:10003000FEFFFFEA50009FE5DBF021E300D0A0E1E6
:10004000000040E2D7F021E300D0A0E1000040E250
:10005000D3F021E300D0A0E1100040E2D2F021E390
:1000600000D0A0E1010C40E2D1F021E300D0A0E1FA
:10007000010C40E21FF021E300D0A0E101AB4DE212
:10008000710800EB010000EBFEFFFFEA00008200B8
:1000900010D09FE5D70A00FA00009FE510FF2FE17E
:1000A000601F00000000A0E100FC810070402DE90D
:1000B0000040A0E10160A0E1221E8FE20600A0E165
:1000C0008D0A00FA0050A0E1000055E30200001A7A
:1000D0000000A0E30000C4E57080BDE8021C8FE2D0
:1000E0000500A0E1770A00FA000050E30400000ACE
:1000F0001F1E8FE20500A0E1720A00FA000050E323
:100100000600001A0100A0E30000C4E5731F8FE29F
:100110000000A0E3780A00FA0050A0E1130000EA12
:10012000711F8FE20500A0E1660A00FA000050E3AB
:100130000400000A6E1F8FE20500A0E1610A00FAC8
:10014000000050E30600001A0300A0E30000C4E52D
:10015000621F8FE20000A0E3670A00FA0050A0E1EE
:10016000020000EA0000A0E30000C4E5D9FFFFEAB6
:100170000510A0E1020084E25A0A00FA0000A0E1A2
:10018000D4FFFFEA70402DE90040A0E1000054E3F5
:100190000100001A0000A0E37080BDE88010A0E319
:1001A00054019FE5340A00FA0410A0E148019FE5DC
:1001B0004C0A00FA40519FE5051D8FE20500A0E1C1
:1001C000400A00FA000050E30000000A015085E2F6
:1001D0000500A0E1EFFFFFEA70402DE90040A0E13B
:1001E0000150A0E1461F8FE20500A0E1270A00FBB5
:1001F000000050E30400001A0C019FE5000090E5A8
:100200002C0A00FB010050E30200001A0100A0E3E9
:100210000000C4E5190000EAF0108FE20500A0E13B
:100220001A0A00FB000050E30200000A0200A0E3EB
:100230000000C4E5110000EAD8108FE20500A0E13B
:10024000120A00FB000050E30200000A0300A0E3D2
:100250000000C4E5090000EAC0108FE20500A0E13B
:100260000A0A00FB000050E30200000A0400A0E3B9
:100270000000C4E5010000EA0000A0E30000C4E5BE
:100280007080BDE870402DE90050A0E10140A0E180
:100290000060A0E3010054E30100001A84608FE2D3
:1002A0000A0000EA020054E30100001AA4608FE291
:1002B000060000EA030054E30100001AC4608FE264
:1002C000020000EA040054E30000001AE0608FE23C
:1002D0000610A0E10500A0E1020A00FA7080BDE866
:1002E000200000004745540067657400504F535488
:1002F00000000000706F737400000000C4018100F2
:100300002F0000002E68746D6C00000088008100D2
:100310002E706E67000000002E63737300000000F3
:100320002E67696600000000485454502F312E316A
:1003300020323030204F4B0D0A436F6E74656E745F
:100340002D547970653A20746578742F68746D6CDB
:100350000D0A0D0A00000000485454502F312E3170
:1003600020323030204F4B0D0A436F6E74656E742F
:100370002D547970653A20696D6167652F706E67DD
:100380000D0A0D0A00000000485454502F312E3140
:1003900020323030204F4B0D0A436F6E74656E74FF
:1003A0002D547970653A20746578742F6373730DDA
:1003B0000A0D0A00485454502F312E31203230306B
:1003C000204F4B0D0A436F6E74656E742D54797017
:1003D000653A20696D6167652F6769660D0A0D0AC8
:1003E0000000000070402DE90060A0E10150A0E194
:1003F0000510A0E10600A0E1A40900FB0040A0E177
:10040000000054E30100001A0000A0E37080BDE882
:100410000500A0E1A70900FB004084E00400A0E182
:10042000F9FFFFEA0010A0E10100A0E1070000EAE7
:100430000020D0E55F0052E30300001A0120D0E560
:100440005F0052E30000001A010000EA010080E2B0
:10045000F6FFFFEA0000A0E11EFF2FE1F0412DE9C9
:1004600048D04DE20070A0E12810A0E30600A0E112
:10047000810900FA2810A0E30D00A0E17E0900FA2E
:100480000D60A0E15700A0E30000C6E5AB00A0E3CB
:100490000100C6E5AB1F8FE20700A0E1D0FFFFEB34
:1004A0000050A0E1000055E32200000A2010A0E364
:1004B00028008DE2700900FA0040A0E3050000EA80
:1004C0000000D5E528108DE20400C1E7015085E267
:1004D000010084E2FF4000E20000D5E5260050E381
:1004E000F6FFFF1A991F8FE228008DE2820900FAB9
:1004F0000080A0E10800A0E19B0900FB0200C6E526
:100500000140A0E3090000EA091D8FE20000A0E31A
:10051000790900FA0080A0E10800A0E1920900FB3F
:10052000021086E20400C1E7010084E2FF4000E21D
:10053000060054E3F3FFFFBA851F8FE20700A0E136
:10054000A7FFFFEB0050A0E1000055E32200000AE6
:100550002010A0E328008DE2470900FA0040A0E344
:10056000050000EA0000D5E528108DE20400C1E78F
:10057000015085E2010084E2FF4000E20000D5E581
:10058000260050E3F6FFFF1A071D8FE228008DE2D8
:10059000590900FA0080A0E10800A0E1720900FBFF
:1005A0000800C6E50140A0E3090000EA671F8FE2EA
:1005B0000000A0E3500900FA0080A0E10800A0E1DB
:1005C000690900FB081086E20400C1E7010084E22B
:1005D000FF4000E2040054E3F3FFFFBA5E1F8FE226
:1005E0000700A0E17EFFFFEB0050A0E1000055E313
:1005F0002200000A2010A0E328008DE21E0900FA64
:100600000040A0E3050000EA0000D5E528108DE2D7
:100610000400C1E7015085E2010084E2FF4000E2EE
:100620000000D5E5260050E3F6FFFF1A471F8FE2D2
:1006300028008DE2300900FA0080A0E10800A0E166
:10064000490900FB0C00C6E50140A0E3090000EAEF
:10065000F8108FE20000A0E3270900FA0080A0E173
:100660000800A0E1400900FB0C1086E20400C1E78D
:10067000010084E2FF4000E2040054E3F3FFFFBA0C
:10068000DC108FE20700A0E155FFFFEB0050A0E176
:10069000000055E32200000A2010A0E328008DE2AC
:1006A000F50800FA0040A0E3050000EA0000D5E5E7
:1006B00028108DE20400C1E7015085E2010084E2C8
:1006C000FF4000E20000D5E5000050E3F6FFFF1A0E
:1006D00078108FE228008DE2070900FA0080A0E17F
:1006E0000800A0E1200900FB1000C6E50140A0E3DE
:1006F000090000EA54108FE20000A0E3FE0800FAAF
:100700000080A0E10800A0E1170900FB101086E2BC
:100710000400C1E7010084E2FF4000E2040054E36A
:10072000F3FFFFBA011AA0E30100A0E1A60700EB66
:100730002820A0E30D10A0E1010AA0E3AA0700EB26
:1007400048D08DE2F081BDE85F5F504D41433D00F0
:100750002E0000005F5F505349503D005F5F504DD9
:10076000534B3D005F5F504741543D00F0432DE93E
:100770004CD04DE20080A0E104608DE22810A0E39F
:100780000600A0E1BC0800FA2810A0E304008DE2F6
:10079000B90800FA5700A0E30000C6E5AB00A0E3EB
:1007A0000100C6E5A11F8FE20800A0E10CFFFFEBEE
:1007B0000040A0E1000054E32200000A2010A0E362
:1007C0002C008DE2AC0800FA0050A0E3050000EA1E
:1007D0000000D4E52C108DE20500C1E7014084E261
:1007E000010085E2FF5000E20000D4E5260050E35E
:1007F000F6FFFF1A2C108DE28E0F8FE2AE0E00FA7C
:100800008F1F8FE22C008DE2AE0800FA000050E34B
:100810000300001A8B0F8FE2A70E00FA0000A0E37E
:100820000200C6E5891F8FE22C008DE2A50800FAC0
:10083000000050E30300001A850F8FE29E0E00FABD
:100840000100A0E30200C6E5831F8FE20800A0E1DB
:10085000E3FEFFEB0040A0E1000054E31D00000AAE
:100860002010A0E32C008DE2830800FA0050A0E3E2
:10087000050000EA0000D4E52C108DE20500C1E778
:10088000014084E2010085E2FF5000E20000D4E56F
:10089000260050E3F6FFFF1A2C008DE2B20800FBA1
:1008A0000070A0E1C00FA0E1200C87E00008A0E1EB
:1008B000200CA0E10300C6E52C008DE2AA0800FB95
:1008C0000070A0E1C00FA0E1200C87E04004A0E18F
:1008D000000447E00400C6E5611F8FE20800A0E1C4
:1008E000BFFEFFEB0040A0E1000054E32200000A3D
:1008F0002010A0E32C008DE25F0800FA0050A0E376
:10090000050000EA0000D4E52C108DE20500C1E7E7
:10091000014084E2010085E2FF5000E20000D4E5DE
:10092000260050E3F6FFFF1A1E1E4FE22C008DE258
:10093000710800FA0090A0E10900A0E18A0800FB1C
:100940000500C6E50150A0E3090000EA811F4FE25F
:100950000000A0E3680800FA0090A0E10900A0E10F
:10096000810800FB051086E20500C1E7010085E271
:10097000FF5000E2040055E3F3FFFFBAE8108FE2F6
:100980000800A0E196FEFFEB0040A0E1000054E368
:100990001D00000A2010A0E32C008DE2360800FAAA
:1009A0000050A0E3050000EA0000D4E52C108DE221
:1009B0000500C1E7014084E2010085E2FF5000E24A
:1009C0000000D4E5000050E3F6FFFF1A2C008DE292
:1009D000650800FB0070A0E1C00FA0E1200C87E0DB
:1009E0000008A0E1200CA0E10900C6E52C008DE282
:1009F0005D0800FB0070A0E1C00FA0E1200C87E0C3
:100A00004004A0E1000447E00A00C6E5011AA0E3A3
:100A1000020AA0E3EC0600EB2820A0E304108DE21C
:100A2000020AA0E3F00600EB4CD08DE2F083BDE8B3
:100A30005F5F504D4F443D006D6F64653D3D2573D4
:100A40000A000000300000006D6F646520300A006D
:100A5000310000006D6F646520310A005F5F505304
:100A600050543D005F5F504449503D005F5F50442B
:100A700050543D00F0402DE92CD04DE20070A0E133
:100A800004608DE22810A0E30600A0E1FA0700FA56
:100A90002810A0E304008DE2F70700FA5700A0E356
:100AA0000000C6E5AB00A0E30100C6E5791F8FE2B8
:100AB0000700A0E14AFEFFEB0040A0E1000054E384
:100AC0000C00000A000054E30A00000A0050A0E3F2
:100AD000050000EA0000D4E5021086E20500C1E747
:100AE000014084E2010085E2FF5000E20000D4E50D
:100AF000260050E3F6FFFF1A1A1E8FE20700A0E15E
:100B000037FEFFEB0040A0E1000054E30A00000ABA
:100B10000050A0E3050000EA0000D4E50C1086E2D6
:100B20000500C1E7014084E2010085E2FF5000E2D8
:100B30000000D4E5000050E3F6FFFF1A011AA0E31D
:100B4000030AA0E3A00600EB2820A0E304108DE236
:100B5000030AA0E3A40600EB2CD08DE2F080BDE8F0
:100B6000F74F2DE918D04DE20090A0E101A0A0E1DF
:100B7000021AA0E32C019FE5BF0700FA0940A0E19B
:100B800020619FE50900A0E1CA0700FB04008DE594
:100B900000B0A0E33A0000EA0000D4E55F0050E3B3
:100BA0003200001A0100D4E55F0050E32F00001A64
:100BB0000200D4E5410050E32C00001A0050A0E3ED
:100BC000040000EA0000D4E508108DE20500C1E74A
:100BD000014084E2015085E2060055E3F8FFFF3A48
:100BE0000A70A0E10050A0E31C0000EA08008DE2BA
:100BF000001097E5A50700FB000050E31500000A70
:100C0000040087E214008DE5040087E2A90700FBD9
:100C10000080A0E10000A0E300008DE50A0000EAEA
:100C200014009DE50000D0E50000C6E5016086E205
:100C300014009DE5010080E214008DE500009DE5B3
:100C4000010080E2FF0000E200008DE500009DE56C
:100C5000080050E1F1FFFF3A187087E2015085E289
:100C600020009DE5000055E1DFFFFF3A030000EAA8
:100C70000000D4E50000C6E5014084E2016086E2A0
:100C800001B08BE204009DE500005BE1C1FFFF3A8B
:100C900024D08DE2F08FBDE85F5F505553453D0095
:100CA0005F5F505041533D0074048100F0412DE9D5
:100CB0000050A0E10080A0E30560A0E11C701FE5EA
:100CC0005C049FE5000090E50100D0E5020050E3E0
:100CD0001D00001A4C049FE50000D0E5010050E320
:100CE0000100001A40849FE5210000EA34049FE5DA
:100CF0000000D0E5020050E30100001A2C849FE5BB
:100D00001B0000EA1C049FE50000D0E5030050E34F
:100D10000100001A18849FE5150000EA04049FE50D
:100D20000000D0E5040050E30100001A04849FE5B0
:100D30000F0000EAEC039FE50000D0E5050050E35A
:100D40000B00001AF0839FE5090000EAD0039FE53D
:100D5000000090E50100D0E5040050E30100001A16
:100D6000498DA0E3020000EA0500A0E1510700FB65
:100D70000080A0E1021AA0E3D8001FE53E0700FAB8
:100D80000040A0E3040000EA0000D6E50000C7E54B
:100D9000016086E2017087E2014084E2080054E1CC
:100DA000F8FFFF3AF081BDE804E02DE524D04DE2E4
:100DB000E20F8FE28C139FE5000081E51410A0E3A1
:100DC00010008DE22C0700FA7C039FE5000090E5FF
:100DD0000700D0E570139FE5001091E50610D1E5FE
:100DE00064239FE5002092E50520D2E558339FE576
:100DF000003093E50430D3E50C008DE548039FE512
:100E000008108DE504208DE500308DE5000090E5AB
:100E10000330D0E530039FE5000090E50220D0E5E7
:100E2000CA1F8FE210008DE22B0D00FA10108DE228
:100E30002C039FE52B0700FA24139FE5C90F8FE2CF
:100E40001D0D00FACA0F8FE2F8129FE5180081E528
:100E50001410A0E310008DE2070700FAE8029FE5F6
:100E6000000090E50B00D0E5DC129FE5001091E555
:100E70000A10D1E504008DE5CC029FE500108DE558
:100E8000000090E50930D0E5BC029FE5000090E548
:100E90000820D0E52E1E8FE210008DE20E0D00FA24
:100EA00010108DE2DC029FE50E0700FAD4129FE5D8
:100EB000B50F8FE2000D00FAB60F8FE284129FE5A6
:100EC000300081E51410A0E310008DE2EA0600FA7C
:100ED00074029FE5000090E50F00D0E568129FE5E1
:100EE000001091E50E10D1E504008DE558029FE554
:100EF00000108DE5000090E50D30D0E548029FE53B
:100F0000000090E50C20D0E59B1F8FE210008DE2E1
:100F1000F10C00FA10108DE280029FE5F10600FA54
:100F200078129FE59E0F8FE2E30C00FA9F0F8FE28D
:100F300010129FE5480081E51410A0E310008DE237
:100F4000CD0600FA00029FE5000090E51300D0E511
:100F5000F4119FE5001091E51210D1E504008DE534
:100F6000E4019FE500108DE5000090E51130D0E52B
:100F7000D4019FE5000090E51020D0E57E1F8FE2B0
:100F800010008DE2D40C00FA10108DE224029FE5CF
:100F9000D40600FA1C129FE5870F8FE2C60C00FAF8
:100FA000220E8FE224129FE5000081E51410A0E3D9
:100FB00010008DE2B00600FA14029FE5000090E5F3
:100FC0000220D0E5831F8FE210008DE2C20C00FAF0
:100FD00010108DE200029FE5C20600FA7F0F8FE23B
:100FE000E8119FE5180081E51410A0E310008DE2E0
:100FF000A10600FAD8019FE5000090E50410D0E5B5
:10100000CC019FE5000090E50300D0E5002481E0DD
:10101000071D8FE210008DE2AF0C00FA10108DE278
:10102000C0019FE5AF0600FA6F0F8FE29C119FE5AC
:10103000300081E51410A0E310008DE28E0600FA66
:101040008C019FE5000090E50800D0E580119FE548
:10105000001091E50710D1E504008DE570019FE5D2
:1010600000108DE5000090E50630D0E560019FE5B9
:10107000000090E50520D0E5FC108FE210008DE225
:10108000950C00FA10108DE264019FE5950600FAB8
:10109000160E8FE234119FE5480081E51410A0E39D
:1010A00010008DE2740600FA24019FE5000090E52F
:1010B0000A10D0E518019FE5000090E50900D0E591
:1010C000002481E0431F8FE210008DE2820C00FAC1
:1010D00010108DE224019FE5820600FA120E8FE2C5
:1010E00024119FE5000081E520019FE5000090E5C7
:1010F000021080E218019FE57A0600FA450F8FE2A0
:1011000004119FE5180081E500019FE5000090E5CE
:101110000C1080E204019FE5720600FA24D08DE2F3
:1011200004F09DE4000081008D008100E1050000D5
:10113000A30C0000660800009A090000CE10000011
:101140005F5F414D41430000440281000400810083
:1011500025642E25642E25642E25642E25642E25D7
:1011600064000000480281005F5F414D41433D251E
:10117000730A00005F5F41534950000025642E252B
:10118000642E25642E256400600281005F5F415358
:1011900049503D25730A00005F5F414D534B0000ED
:1011A000780281005F5F414D534B3D25730A00007B
:1011B0005F5F414741540000900281005F5F4147FB
:1011C00041543D25730A00005F5F414D4F440000CC
:1011D000A40281000800810025640000A8028100AB
:1011E0005F5F415350540000C00281005F5F414483
:1011F00049500000D80281005F5F41445054000014
:10120000F00281005F5F41555345000004038100F7
:101210000C008100080381005F5F415041530000D2
:1012200020038100F8402DE988451FE58C039FE5E8
:101230000000D0E5000050E3A101000A0000A0E397
:1012400078139FE50000C1E574139FE530011FE5A9
:10125000000090E594FBFFEB3C011FE5000090E5EA
:101260000000D0E5000050E30400000A010050E354
:101270006F00000A030050E39001001A010000EA29
:101280000000A0E18D0100EA0000A0E170011FE56F
:10129000000090E5020080E2B9FBFFEB981F1FE51C
:1012A000000081E5000081E2001090E590011FE55B
:1012B000000090E5010080E2C6FBFFEBA0011FE506
:1012C000000090E50110D0E5F8029FE5ECFBFFEB94
:1012D000F0029FE5F70500FB00008DE50D20A0E181
:1012E000E0129FE5E0029FE50000D0E5A10800FACA
:1012F0000060A0E1B51F8FE2F40F1FE5000090E54C
:10130000E20500FB000050E30A00000AC4029FE56A
:1013100065FEFFEB74061FE5E60500FB00008DE5AA
:101320000D20A0E184161FE59C029FE50000D0E59A
:10133000900800FA0F0000EAA71F8FE2A0029FE5C5
:10134000000090E5D10500FB000050E30900000A11
:1013500090029FE554FEFFEBB8061FE5D50500FBA4
:1013600000008DE50D20A0E1C8161FE558029FE59D
:101370000000D0E57F0800FA0010A0E348029FE5D6
:101380000000D0E5640700FA34029FE524FCFFEB7F
:101390000050A0E1251E8FE20500A0E1BB0500FB87
:1013A000000050E30700000A0500A0E12AFCFFEB63
:1013B0000500A0E1BF0500FB0070A0E10710A0E15F
:1013C0000500A0E1AC0500FA891F8FE20500A0E14D
:1013D000AE0500FB000050E30700000A0500A0E195
:1013E000E1FCFFEB0500A0E1B20500FB0070A0E10D
:1013F0000710A0E10500A0E19F0500FA7E1F8FE223
:101400000500A0E1A10500FB000050E30700000A71
:101410000500A0E196FDFFEB0500A0E1A50500FB9E
:101420000070A0E10710A0E10500A0E1920500FA1C
:10143000220100EA0000A0E11C031FE5000090E586
:10144000020080E24EFBFFEB94119FE5000081E576
:10145000000081E2001090E53C031FE5000090E5EC
:10146000010080E25BFBFFEB4C031FE5000090E511
:101470000110D0E54C019FE581FBFFEB44019FE5A6
:101480008C0500FB00008DE50D20A0E134119FE5E7
:1014900034019FE50000D0E5360800FA40019FE5E1
:1014A000000090E5830500FB010050E30C00001AEA
:1014B0000220A0E3B0121FE544019FE5A7FDFFEB6A
:1014C00020081FE57B0500FB00008DE50D20A0E155
:1014D00030181FE5F0009FE50000D0E5250800FA70
:1014E000F10000EAE4108FE2F4009FE5000090E5CF
:1014F000660500FB000050E30A00000AD4009FE5E7
:10150000E9FDFFEB64081FE56A0500FB00008DE5BF
:101510000D20A0E174181FE5AC009FE50000D0E5A8
:10152000140800FAE00000EAD8108FE2B0009FE54E
:10153000000090E5550500FB000050E30C00000A98
:101540000420A0E304141FE5C0009FE583FDFFEB2A
:10155000B0081FE5570500FB00008DE50D20A0E158
:10156000C0181FE560009FE50000D0E5010800FA03
:10157000CD0000EA98108FE264009FE5000090E53E
:10158000420500FB000050E32400000A0420A0E311
:10159000C8131FE580009FE570FDFFEBFC081FE509
:1015A000440500FB00008DE50D20A0E10C191FE5AE
:1015B00014009FE50000D0E5EE0700FABA0000EA4B
:1015C000A1008100B89B8100AC0381008C008100E8
:1015D0006D61696E00000000DE9C0000737563633E
:1015E000657373008800810099BC00005F5F504DF7
:1015F000414300005F5F504D4F4400005F5F505516
:1016000053450000B49600006261736963000000F6
:10161000D5A80000706F7274000000001DAD0000BE
:101620002A1E8FE248001FE5000090E5170500FB29
:10163000000050E30C00000A0220A0E338141FE56C
:1016400088029FE545FDFFEBA8091FE5190500FB92
:1016500000008DE50D20A0E1B8191FE598001FE5F9
:101660000000D0E5C30700FA8F0000EA261E8FE2D3
:1016700094001FE5000090E5040500FB000050E326
:101680000A00000A50029FE587FDFFEBEC091FE509
:10169000080500FB00008DE50D20A0E1FC191FE509
:1016A000DC001FE50000D0E5B20700FA7E0000EA8A
:1016B0008A1F8FE2D8001FE5000090E5F30400FBCD
:1016C000000050E30C00000A0100A0E3AC151FE588
:1016D0000000C1E50C029FE573FDFFEBB8051FE5B7
:1016E00000008DE50D20A0E1481A1FE528011FE547
:1016F0000000D0E59F0700FA6B0000EA7A1F8FE236
:1017000024011FE5000090E5E00400FB000050E329
:101710000C00000A0200A0E3F8151FE50000C1E577
:10172000CC019FE560FDFFEB00061FE500008DE5A5
:101730000D20A0E1941A1FE574011FE50000D0E51B
:101740008C0700FA580000EA6A1F8FE270011FE55B
:10175000000090E5CD0400FB000050E30C00000AFF
:101760000300A0E344161FE50000C1E58C019FE5DE
:101770004DFDFFEB48061FE500008DE50D20A0E1C3
:10178000E01A1FE5C0011FE50000D0E5790700FA67
:10179000450000EA5A1F8FE2BC011FE5000090E5FA
:1017A000BA0400FB000050E30C00000A0400A0E3B0
:1017B00090161FE50000C1E54C019FE53AFDFFEBE7
:1017C00090061FE500008DE50D20A0E12C1B1FE514
:1017D0000C021FE50000D0E5660700FA320000EABF
:1017E0004A1F8FE208021FE5000090E5A70400FBF6
:1017F000000050E30C00000A0500A0E3DC161FE522
:101800000000C1E50C019FE527FDFFEBD8061FE5B1
:1018100000008DE50D20A0E1781B1FE558021FE5B3
:101820000000D0E5530700FA1F0000EAE8108FE23D
:1018300054021FE5000090E5940400FB000050E313
:101840000900000AD8009FE517FDFFEB490DA0E352
:1018500000008DE50D20A0E1B81B1FE598021FE5F3
:101860000000D0E5430700FA0F0000EAB4108FE251
:1018700094021FE5000090E5840400FB000050E3A3
:101880000900000AA4009FE507FDFFEBEC0B1FE534
:10189000880400FB00008DE50D20A0E1FC1B1FE586
:1018A000DC021FE50000D0E5320700FA0010A0E3DB
:1018B000EC021FE50000D0E5170600FA0000A0E1E9
:1018C0000000A0E1F880BDE87573657200000000BB
:1018D00017B2000061626F75740000005BB5000014
:1018E0006C6F676F00000000F4C40000706E673119
:1018F0000000000015DD0000706E6732000000007F
:10190000B8E90000706E6733000000001EF20000AE
:10191000706E673400000000B8FB000077656978DE
:10192000696E0000D5CA00007374796C6500000010
:1019300038BE00000F502DE90105A0E3400090E5FE
:10194000020900E2000050E30000000A700500FAFE
:101950000105A0E3400090E5010000E2000050E333
:101960000600000A0A00A0E3460700FA08049FE503
:101970000600D0E5FF0080E3FC139FE50600C1E50B
:101980000F50BDE804F05EE20000A0E1FEFFFFEAB8
:101990000200A0E3E0139FE50000C1E50000A0E322
:1019A000080081E5D4039FE50C0081E50000C1E15A
:1019B0000200D0E5010080E30200C1E50400A0E3DD
:1019C0000000C1E51EFF2FE10105A0E34800D0E5BE
:1019D000010080E30115A0E34800C1E50105A0E393
:1019E0004900D0E5800080E34900C1E50105A0E39E
:1019F0004B00D0E5800080E34B00C1E51EFF2FE1E6
:101A0000000050E30000001A1EFF2FE10000A0E1DB
:101A1000FCFFFFEAF0412DE918D04DE20040A0E1C3
:101A20000150A0E10260A0E10370A0E14D0500FAC1
:101A3000070050E30200000AFC00A0E318D08DE28A
:101A4000F081BDE838039FE538139FE5000081E58C
:101A500034039FE504008DE5010BA0E308008DE54C
:101A600028039FE50C008DE51000A0E310008DE534
:101A70007B00A0E314008DE504008DE21C0500FA54
:101A80000730A0E10620A0E10510A0E10400A0E1DC
:101A9000350500FA0080A0E10800A0E1E6FFFFEABA
:101AA00038402DE90040A0E10150A0E1040005E22A
:101AB000000050E30F00000A0010A0E30400A0E1C2
:101AC000A60600FA00008DE500009DE5000050E349
:101AD0000800000A0D20A0E1B4129FE50400A0E177
:101AE000360600FA0100A0E3A8129FE50000C1E558
:101AF000A4029FE50040C0E5080005E2000050E3B5
:101B00000600000A94029FE5940000E090229FE501
:101B1000001182E08C229FE50400A0E15E0500FA3E
:101B20003880BDE870402DE9FC0400FA0060A0E1B7
:101B3000040006E2000050E30100000AFC0400FA81
:101B40000040A0E1100006E2000050E30D00000A92
:101B50000040A0E3090000EA0400A0E1F80400FA54
:101B60000050A0E1000055E30200000A0510A0E1CA
:101B70000400A0E1C9FFFFEB010084E2FF4000E2A6
:101B8000060054E3F3FFFFBA7080BDE8FC412DE985
:101B90000060A0E10150A0E10270A0E10380A0E19B
:101BA0000040A0E3080000EA04108DE20450C1E701
:101BB00004008DE20410D0E77B0F8FE2BE0900FA2B
:101BC0002554A0E1010084E2FF4000E2040054E358
:101BD000F4FFFFBA00708DE50400D6E504308DE215
:101BE00020208DE20810A0E1720600FAFC81BDE819
:101BF00010402DE940D04DE23C10A0E304008DE2FE
:101C00009D0300FA5000A0E32C008DE50300A0E343
:101C100020008DE504108DE294019FE56A0500FA2D
:101C20000040A0E10400A0E174FFFFEB80019FE50C
:101C30000000D0E5CD0500FA0040A0E10400A0E1DD
:101C40006EFFFFEB40D08DE21080BDE8F0412DE942
:101C500040D04DE20060A0E10140A0E10270A0E1AF
:101C60000350A0E13C10A0E304008DE2820300FADF
:101C70000520A0E10710A0E14E0F8FE28E0900FAC7
:101C80000300D4E500008DE50230D4E50120D4E561
:101C90000010D4E54E0F8FE2870900FA0610A0E18C
:101CA000050D8FE2840900FA000056E30200000AE5
:101CB000010056E32B00001A100000EA0000A0E12A
:101CC0000300A0E320008DE52C508DE504108DE28B
:101CD000DC009FE53C0500FA0080A0E10800A0E1DF
:101CE00046FFFFEBC8009FE50000D0E59F0500FA26
:101CF0000080A0E10800A0E140FFFFEB1B0000EA2C
:101D00000000A0E10300A0E320008DE50420A0E393
:101D10000410A0E130008DE24A0300FA2C508DE55A
:101D200028708DE5C8009FE50C008DE574009FE5E7
:101D300010008DE504108DE274009FE5220500FA85
:101D40000080A0E10800A0E12CFFFFEB60009FE510
:101D50000000D0E5050500FA0080A0E10800A0E140
:101D600026FFFFEB010000EA0000A0E10000A0E177
:101D70000000A0E140D08DE2F081BDE8008040008D
:101D800040420F0086245502A8008100EC050000A7
:101D9000F8110000B89B8100A10081008C00810037
:101DA0006D0100006CA18100B4050000252D346494
:101DB00000000000A0008100646573706F72743AC7
:101DC0002025642C20737263706F72743A2025642E
:101DD0000A00000064657369703A25642E25642E3C
:101DE00025642E25640A00006D6F64652025640A51
:101DF0000000000088B2810070402DE9D0439FE5CB
:101E00000A10A0E30400A0E1F90200FA0150A0E1E9
:101E10000A10A0E30400A0E1F50200FA0040A0E1EE
:101E2000050055E30000003A014084E28000A0E391
:101E3000A0139FE50300C1E50100A0E30700C1E591
:101E40000408A0E1200CA0E10100C1E50040C1E5CB
:101E50000300A0E30300C1E5C700A0E30200C1E561
:101E60004000A0E30100C1E50105A0E3BC0090E54E
:101E7000030C80E30115A0E3BC0081E50105A0E3AC
:101E8000B40090E5010CC0E3B40081E50105A0E3D6
:101E9000A00090E5020C80E3A00081E57080BDE821
:101EA00030339FE50000C3E50000A0E124239FE557
:101EB0000520D2E5202002E2000052E3FAFFFF0AEB
:101EC0001EFF2FE110402DE9C30F8FE2FA0800FA40
:101ED0005700A0E30115A0E30000C1E5AB00A0E3BB
:101EE0000000C1E54100A0E30600C1E50000A0E359
:101EF0000000C1E51080BDE810402DE9011AA0E303
:101F00000100A0E1B00100EB2820A0E3D0129FE582
:101F1000010AA0E3B40100EB011AA0E3020AA0E366
:101F2000A90100EB2820A0E3B8129FE5020AA0E374
:101F3000AD0100EB011AA0E3030AA0E3A20100EB4C
:101F40002820A0E3A0129FE5030AA0E3A60100EB6E
:101F5000A60F8FE2D80800FAD9FFFFEB1080BDE88A
:101F60000040A0E3A3FFFFEB0105A0E3B00090E574
:101F7000400080E30115A0E3B00081E50105A0E386
:101F8000A00090E54000C0E3A00081E50105A0E3CA
:101F9000A40090E5400000E2000050E30D00001AAC
:101FA0007D0FA0E3C30000EB0105A0E3A40090E5D2
:101FB000400000E2000050E30600001A0000A0E12B
:101FC0000105A0E3A40090E5400000E2000050E31A
:101FD000FAFFFF0AC7FFFFEB2820A0E31C029FE5E2
:101FE000001090E5010AA0E35C0100EB2820A0E3CB
:101FF0000C029FE5001090E5020AA0E3570100EBF8
:102000002820A0E3FC019FE5001090E5030AA0E36F
:10201000520100EBE4019FE5000090E50000D0E5EF
:10202000570050E30400001AD0019FE5000090E53E
:102030000100D0E5AB0050E30100000AADFFFFEB6B
:10204000160000EAB4019FE5000090E50000D0E52D
:10205000570050E30400001AA0019FE5000090E53E
:102060000100D0E5AB0050E30100000AA1FFFFEB47
:102070000A0000EA84019FE5000090E50000D0E539
:10208000570050E30400001A70019FE5000090E53E
:102090000100D0E5AB0050E30000000A95FFFFEB24
:1020A0000620A0E354019FE5000090E5021080E2C5
:1020B00054019FE5630200FA0420A0E33C019FE580
:1020C000000090E5081080E240019FE55D0200FA03
:1020D0000420A0E324019FE5000090E50C1080E2BD
:1020E0002C019FE5570200FA0420A0E30C019FE5B4
:1020F000000090E5101080E218019FE5510200FAFF
:10210000450F8FE26C0800FA0040A0E3050000EAEA
:10211000F8009FE50410D0E7420F8FE2660800FA4E
:10212000010084E2FF4000E2040054E3F7FFFFBA3D
:10213000D4309FE5D8209FE5D8109FE5CC009FE5DF
:1021400033FEFFEB0040A0E10400A0E12BFEFFEB1B
:10215000C4031FE5D0109FE5000081E50BFEFFEBF7
:1021600018FEFFEBA1FEFFEB94009FE5000090E559
:102170000A10D0E588009FE5000090E50900D0E551
:10218000000481E00158C0E374009FE5000090E581
:102190000410D0E568009FE5000090E50300D0E55D
:1021A000000481E00168C0E354109FE5001091E550
:1021B0000200D1E50630A0E10520A0E140109FE536
:1021C000001091E5051081E29FFEFFEBF5FAFFEBB1
:1021D0001C0000EA3D04000000D0400072657365F9
:1021E000740A000010008100600081003800810046
:1021F0003536335F64656661756C740A00000000F3
:1022000004008100080081000C0081008E00810024
:10221000940081009C00810098008100636835363D
:102220003369703A0A00000025642E000000810026
:102230008E0300FAA80300FA000050E30000000A31
:1022400037FEFFEBF6FBFFEBF8FFFFEA5700A0E3DA
:102250000115A0E30000C1E5A800A0E30000C1E56E
:102260001400A0E30B00C1E50200A0E30A00C1E5F1
:10227000BC00A0E30900C1E58000A0E30400C1E5C3
:102280000000A0E30000C1E51EFF2FE10010A0E167
:10229000040000EA1800A0E3000000EA010040E2A8
:1022A000000050E3FCFFFF1A002051E2011041E260
:1022B000F7FFFF1A1EFF2FE10010A0E1040000EA63
:1022C0001C009FE5000000EA010040E2000050E32E
:1022D000FCFFFF1A002051E2011041E2F7FFFF1A54
:1022E0001EFF2FE1465F00000010A0E30125A0E3E0
:1022F0001A10C2E50710A0E31A10C2E50115A0E309
:102300001800C1E51EFF2FE10000A0E10105A0E3D8
:102310001A00D0E5800010E3FBFFFF1A0000A0E3E5
:102320000115A0E31A00C1E51EFF2FE10000A0E1A6
:102330000115A0E31A10D1E5800011E3FBFFFF1A9D
:102340000115A0E31800C1E51EFF2FE10000A0E188
:102350000105A0E31A00D0E5800010E3FBFFFF1A9F
:102360000105A0E31800D0E51EFF2FE104E02DE5F4
:102370000020A0E10214A0E1210CA0E1EAFFFFEBA4
:102380000218A0E1210CA0E1E7FFFFEBFF0002E251
:10239000E5FFFFEB04F09DE404E02DE50030A0E153
:1023A0000600A0E3CFFFFFEBD6FFFFEB0300A0E1A9
:1023B000CCFFFFEB04F09DE410402DE9D1FFFFEBD3
:1023C0000040A0E30A0000EA0500A0E3C5FFFFEB20
:1023D000DDFFFFEBDCFFFFEB0030A0E1C9FFFFEB0F
:1023E000010013E30100001A0000A0E31080BDE823
:1023F000014084E20A0754E3F2FFFF3AFF00A0E342
:10240000F9FFFFEA30402DE90030A0E14B00A0E3E6
:10241000B4FFFFEB0000A0E3D3FFFFEBCAFFFFEB2D
:10242000C9FFFFEB0340A0E10750A0E30000A0E1DB
:10243000C5FFFFEB0500C4E70500B0E1015045E230
:10244000FAFFFF1AAFFFFFEB3080BDE804E02DE597
:10245000B900A0E3A3FFFFEBAAFFFFEB04F09DE4AC
:1024600004E02DE5AB00A0E39EFFFFEB0030A0E30E
:10247000010000EAA3FFFFEB013083E2320053E3E7
:10248000FBFFFFBA04F09DE4F0412DE90040A0E11C
:102490000150A0E10270A0E114859FE5080004E06E
:1024A000005085E0085085E00850C5E10840C4E1CF
:1024B000070054E10100003AFE00A0E3F081BDE80E
:1024C000050084E0070050E10100009AFA00A0E353
:1024D000F9FFFFEA8408A0E1A008B0E10E00001AAD
:1024E0000B0000EA5200A0E3AAFFFFEB0400A0E10A
:1024F0009DFFFFEBAFFFFFEB0060A0E1000056E3A4
:102500000100000A0600A0E1EBFFFFEA024984E2B5
:10251000025945E2020955E3F1FFFF2A0B0000EAE8
:102520002000A0E39BFFFFEB0400A0E18EFFFFEB88
:10253000A0FFFFEB0060A0E1000056E30100000AED
:102540000600A0E1DCFFFFEA014A84E2015A45E20D
:10255000010A55E3F1FFFF2A0000A0E3D6FFFFEADE
:10256000F0402DE90030A0E10140A0E10250A0E1DF
:102570000470A0E11E3983E2020753E30000003A31
:10258000F080BDE8026763E2060055E10000009AB2
:102590000650A0E10B00A0E352FFFFEB0300A0E117
:1025A00071FFFFEB68FFFFEB67FFFFEB010000EA45
:1025B00065FFFFEB0100C7E40500B0E1015045E213
:1025C000FAFFFF1A4FFFFFEBECFFFFEA30402DE967
:1025D0000040A0E10150A0E10227A0E30510A0E126
:1025E0001E0984E2A7FFFFEB3080BDE8F0412DE932
:1025F0000040A0E10160A0E10270A0E11E4984E278
:10260000020754E30100003AFE00A0E3F081BDE8B8
:10261000070084E0020750E30100009AFA00A0E3FB
:10262000F9FFFFEA0680A0E1140000EA0200A0E33F
:1026300058FFFFEB0400A0E14BFFFFEB0000A0E11F
:102640000100D8E438FFFFEB014084E2010047E2DB
:102650000070B0E10000001A010000EAFF0014E37E
:10266000F6FFFF1A0000A0E152FFFFEB0050A0E1CF
:10267000000055E30100000A0500A0E1E2FFFFEAC7
:10268000000057E3E8FFFF1A0000A0E3DEFFFFEAC7
:1026900004E02DE53500A0E312FFFFEB2AFFFFEB7E
:1026A00029FFFFEBC031A0E10000A0E30115A0E38A
:1026B0001A00C1E5070023E2070000E204F09DE4F0
:1026C00030402DE90040A0E10150A0E11E29A0E327
:1026D0000510A0E1010784E26AFFFFEB3080BDE84E
:1026E000FE4F2DE90040A0E10150A0E10260A0E111
:1026F0000570A0E13F42C4E3014784E21E0954E3B0
:102700000100003AFE00A0E3FE8FBDE8060084E071
:102710001E0950E30100009AFA00A0E3F9FFFFEA66
:10272000010744E200008DE500009DE5140050E340
:102730001700008A00009DE5060080E0140050E3C9
:102740001300009A140085E200109DE5010040E0AE
:102750000090D0E5610059E3020000BA610049E24F
:10276000FF9000E2030000EA410059E3010000BAD3
:10277000410049E2FF9000E2000059E30400000A32
:10278000C2FFFFEB090050E10100000AFC00A0E3DA
:10279000DCFFFFEA2661A0E118029FE508008DE555
:1027A00014029FE504008DE5320000EA0200A0E378
:1027B000F8FEFFEB0400A0E1EBFEFFEB0000A0E160
:1027C00004B097E40BA0A0E10AB0A0E108009DE5E9
:1027D00000A02AE008001BE30000000A02A22AE28F
:1027E00004009DE500A00AE001091BE30000000AC7
:1027F00001A78AE301071BE30000000A01A98AE39D
:1028000002041BE30000000A02A38AE302031BE3A5
:102810000000000A02A48AE3FF000AE2C2FEFFEB06
:102820000A18A0E1210CA0E1BFFEFFEB0A14A0E111
:10283000210CA0E1BCFEFFEB2A0CA0E1BAFEFFEBED
:10284000044084E2010046E20060B0E10000001AAA
:10285000010000EAFF0014E3D8FFFF1A0000A0E126
:10286000D4FEFFEB0080A0E1000058E30100000A65
:102870000800A0E1A3FFFFEA000056E3CAFFFF1A29
:102880000000A0E39FFFFFEAF0472DE90030A0E140
:102890000140A0E10250A0E10460A0E1013783E221
:1028A0001E0953E30100003AFE00A0E3F087BDE8F3
:1028B0002551A0E1FC909FE5FCA09FE50B00A0E363
:1028C00088FEFFEB0300A0E1A7FEFFEB9EFEFFEBFF
:1028D0009DFEFFEB1E0000EA9BFEFFEB0010A0E157
:1028E00099FEFFEB001481E197FEFFEB001881E1F8
:1028F00095FEFFEB007C81E10780A0E10870A0E17C
:10290000098028E0080017E30000000A028228E29C
:102910000A8008E0010917E30000000A018788E344
:10292000010717E30000000A018988E3020417E3A6
:102930000000000A028388E3020317E30000000A94
:10294000028488E3040096E4080050E10000000AD5
:10295000020000EA0500B0E1015045E2DDFFFF1A88
:102960000000A0E167FEFFEB010085E2CEFFFFEA79
:1029700010402DE90040A0E10100A0E385FEFFEB3F
:102980007C0004E268FEFFEB000054E30300000A51
:10299000200014E30100001A4210A0E3000000EA46
:1029A0000210A0E3FF0001E25FFEFFEB81FEFFEB00
:1029B0001080BDE8FF0F000080800001FFBFFBF525
:1029C00070B500260124A405A6760725A576352036
:1029D000207600F007F800F005F80100A676280040
:1029E000884370BD01208005817E0906FCD4007EED
:1029F000C00870470B0001000020202230B50124E0
:102A000009E00D00D5409D4205D31D009540491BAE
:102A10002500954040191500521E002DF1DC30BDF7
:102A200070B500242500002801DA01244042002965
:102A300001DA01254942FFF7DDFFAC4200D04042F8
:102A4000002C00D0494270BD03000B439B0703D00C
:102A500009E008C9121F08C0042AFAD203E00B7863
:102A60000370401C491C521EF9D270471206120E08
:102A700001E00270401C491EFBD270470022F5E7BE
:102A800013000A0010B504001900FFF7EFFF200043
:102A900010BD30B505002A000B0010781C78521CC0
:102AA0005B1C002801D0A042F7D0002C03D00028E6
:102AB00002D06D1CEFE7280030BD421C0178401C9D
:102AC0000029FBD1801A7047002210B500E0521C8B
:102AD000835C8C5CA34201D1002BF8D1180621063F
:102AE000000E090E401A10BD03000A780270401C47
:102AF000491C002AF9D118007047000070B5002861
:102B0000104D00D12868002415E00A0002E09E4222
:102B100003D0521C1378002BF9D11A06120E22434F
:102B200007D0002B06D0002C04D000210170401CDF
:102B300004E00400401C0678002EE6D12860200046
:102B400070BD0000B80181000321001D401E037804
:102B500012021A43491EF9D51000704703000322E0
:102B60000870000A491C521EFAD51800704770B54B
:102B7000060001F0D3FB046805000A2200213000A2
:102B800000F002F82C6070BDF7B50F00009C002625
:102B90002578641C002D05D000F03EF80068405DEB
:102BA000C007F5D12B2D02D02D2D18D0641E029A0E
:102BB0003900200000F034F8002F04D03968A14219
:102BC00001D1009939607105022400290BDA4042D5
:102BD000002803DD01F0A2FB0460A007FEBD012078
:102BE00080020643E3E70028F8DA01F097FB04606F
:102BF0000048FEBDFFFFFF7F054C064D03E00FCCF4
:102C0000103C98471034AC42F9D3FDF746EA000077
:102C1000E00D0100000E010000487047640D010046
:102C2000F7B582B015000027029C2078641C30287C
:102C3000019702D0002D15D015E020780127641CE3
:102C4000782804D0582802D0002D09D00BE0002DA0
:102C500001D0102D07D1207800271025641C02E038
:102C6000082500E00A250026009611E000990127BA
:102C700069430818020C290071430004000C0090FD
:102C80008E183804864201D3012001902078641CFC
:102C9000290000F019F80028E8DA0398002805D088
:102CA000002F01D0641E00E0029C046001980028FF
:102CB00006D001F033FB02210160C81E05B0F0BD53
:102CC000009930040843F9E73A2800D2303820232D
:102CD00002009A43412A01D310003738884201D3B9
:102CE0000020C0437047000030402DE9024081E0E1
:102CF00001C0D0E407301CE20130D0044C22B0E126
:102D00000120D004010000EA0150D0E40150C1E4E8
:102D1000013053E2FBFFFF1A08301CE20300000AF7
:102D20000130D0E4022082E2033041E0050000EAF5
:102D3000012052E20130C154FCFFFF5A030000EAB7
:102D400001C0D3E401C0C1E4012052E2FBFFFF5AFD
:102D5000040051E10000A023E4FFFF3A3080BDE809
:102D600010B5064CA06840084000A06001F0EAFCE5
:102D7000A06801210843A06010BD000080604000F1
:102D800010B5074C0128206207D0012000F036FE64
:102D9000E06A04210843E06210BD0020F6E700006D
:102DA000A4C3810030B5184B164CDB7800220EE02E
:102DB0003C2555432D192D6B854205D1002803D0A4
:102DC000002915D00A7013E0521C1206120E9A4206
:102DD000EED3002211E03C2555432D196D6B854241
:102DE00008D1002806D0002902D080200243E9E75C
:102DF000012030BD521C1206120E9A42EBD3002065
:102E000030BD0000703C8100A400810070B50B4D06
:102E10000B4E00240EE03C2060434019016A052956
:102E200005D18169002902D0042100F035FC641C21
:102E30002406240EF0788442EDD370BD703C8100EE
:102E4000A4008100F0B52548816B826B02219200BD
:102E50000300803B9950224909680969826B9200FE
:102E6000D218D163816B1F4D2A6851431E4A8918BD
:102E7000826B9200D2189167816B491C8163846BCD
:102E80001A490A78944201D300218163816B890039
:102E90005F58174C876B21680126BF00DE514B69D4
:102EA000DB684B614F690023BB604969836B2D6808
:102EB0006B430D4DAD1E5B198D682B438B602368F2
:102EC000F1075B6919600664C16B491CC163C16B82
:102ED0005300D318994200D9C263F0BDECCA8100F7
:102EE00060018100E8C38100C2248100A400810048
:102EF00064018100064902680A6042684A6082688B
:102F00008A60C268CA6000690861002070470000DA
:102F1000E8C3810010B5002001F09CFF10BD000047
:102F200000B500F0DBF8024A0021D16200BD0000CC
:102F3000A4C381000248008C0006000E7047000008
:102F4000A4C381000649C978884201D30020704794
:102F50003C214143034A0023505C5350704700001A
:102F6000A4008100703C810007207047F8B51E0066
:102F700015000F000400FFF723FD41300006000E8E
:102F8000422803D0552801D0F920F8BD3348442108
:102F9000FFF774FD32481821FFF770FD2F48042217
:102FA0002100FFF751FD2D4C04223900201DFFF7B1
:102FB0004BFD2000062231000C30FFF745FD002DAF
:102FC0002CD02000042229000830FFF73DFD254DBC
:102FD000322268680126C106C90EE970C105090FD1
:102FE0002970C104090F69708104C90FA9704103D8
:102FF000C90EA1610102C90E5143E161C101C90FAE
:10300000002902D0216C314321648001C00F03D01C
:10301000206C02210843206400270CE0FF2060722E
:10302000A07200202072D2E73900002000F058FB87
:103030007F1C3F063F0EE8788742F5D300F034FD51
:1030400000F0EEFE05480849583066620160074905
:103050004160092181600020F8BD0000A4C3810007
:1030600010C48100A4008100204E0000983A0000A6
:10307000084810B5808CC0070AD000F0A5FE00F00B
:1030800069FE054801F0F6FD00F066FDFFF7BEFEA3
:1030900010BD0000A4C3810028C481000D4B10B5F1
:1030A000DB78984215D23C2358430B4B0024C318BD
:1030B00099609C61DA60196198685861D869032841
:1030C00007D1186B002804D099890904090C05F070
:1030D000D0FC10BDA4008100703C810010B50E4AE8
:1030E0000B4C0C49D37800200CE03C2242438A5818
:1030F000002A04D0E06A10210843E06204E0401C8A
:103100000006000E9842F0D3A08D0006000E10BD00
:10311000A4C38100703C8100A40081003C22424392
:10312000114B10B5D218114BDB78984201D31A20FD
:1031300010BD136A052B01D0172010BDD269022AD9
:1031400005D0032A06D0002A07D0F72010BD00F0D2
:1031500001FC04E000F0D4FB01E000F0B9FB000644
:10316000001600F00FFC10BD703C8100A40081002F
:10317000F8B53C21484313494418266B002E02D071
:10318000206A052801D01720F8BD00276763E06A90
:103190000D4B0090A08C69460204120C300003F025
:1031A0005DFE050007D0300003F0FEFD2800276219
:1031B00000F0E8FBF8BD2036B078BF210840B070C1
:1031C0000020F8BD703C8100E93C0000FEB50C0019
:1031D00001000020050008705E485D4FC07808E0DF
:1031E0003C226A43D219126A002A04D06D1C2D06B3
:1031F0002D0E8542F4D3854201D32020FEBD0D70F3
:10320000E069002805D0022820D003286ED02120B4
:10321000FEBD208D0006000E03F090FB06007BD063
:103220004D48694600680090300003F037FBE06AC3
:1032300069460090300003F03DFB3C20684347495D
:10324000C219300003F090FB266344E006F030F929
:103250000028019079D0E06A00900F20000703F069
:1032600044F90600009907200E40400703F03DF99D
:10327000864205D03A49684602F08AF8002807D00D
:10328000208D384902040198120C05F071FF14E0FA
:103290003148694600680090208D02040198120CA4
:1032A00005F066FF00280AD1E06A69460090A08C0C
:1032B00002040198120C05F0ABFF002802D000F0C8
:1032C00061FBFEBD3C2068432749C219019806F006
:1032D000FCF801982063052020622148694601F02E
:1032E00033FC2900200000F0FBF92CE004F03CFB4B
:1032F00006002AD01848694600680090208D020414
:10330000120C300003F0C8FC0028019005D03000FA
:1033100003F04AFD0198D2E717E03C206843C11949
:10332000300003F0B7FC1149300004F005F82663C3
:103330000520666320622900200000F0D1F90848CA
:10334000694601F001FC0020FEBD1120FEBD000019
:10335000703C8100A4008100A4C38100B53E000040
:1033600028C48100D10C010039410000253800003B
:103370003C21484370B510494418206A256B052844
:1033800004D1606BA84203D0002D01D0172070BD7E
:10339000002020632100280003F07CFCFF2128008E
:1033A00004F0A0FA002805D00449606303F0E0FBB4
:1033B000002070BD112070BD703C810029380000D4
:1033C000F7B582B0049900220D680A603C21484399
:1033D00061494718386A052802D0172005B0F0BDAA
:1033E000002D18D0BE68F968701E0818B9697C698C
:1033F000A94200D20D00039900297DD061198142B4
:1034000000910AD2042D08D903982A002100FFF761
:103410001BFB009C85E01A20E0E75049097C8907E6
:1034200029D5001B401CA842009000D300950098AD
:10343000042805D9020003982100FFF705FB05E0E9
:1034400002040398120C210000F078FC0099039804
:10345000340040188D4264D96E1A042E04D932000B
:103460002100FFF7F1FA04E03204120C210000F011
:1034700065FCA41955E0002140E02378039A641C00
:103480001370039A521C844200D93400491CA9428B
:1034900047D22378641C1370521C844200D9340034
:1034A000491CA9423DD22378641C1370521C8442EB
:1034B00000D93400491CA94233D22378641C13700C
:1034C000521C844200D93400491CA94229D22378D5
:1034D000641C1370521C844200D93400491CA94258
:1034E0001FD22378641C1370521C8442039200D9AB
:1034F0003400491CA94200E003E012D2A942BCD327
:103500000FE06119814203D2042D01D90C0008E0BB
:10351000002104E0641C844200D93400491CA94203
:10352000F8D3049805607C61B869411BB96102D188
:10353000B86878613861F86903280AD1BA89386BAC
:10354000511A0904090C4185FA688A4201D105F033
:1035500090FA002042E70000703C8100E8C381003F
:103560003C225043034A8018002901D042690A6076
:1035700080697047703C81003C2310B543430D4C7B
:103580001B191C6A052C03D000201060172010BDE9
:10359000DB69002B05D0022B06D0032B07D0FA20C5
:1035A00010BD00F0E1FC10BD00F026FE10BD00F0E3
:1035B00043FD10BD703C8100FFB583B00599059AAD
:1035C0000D680026002D166037D00499002934D0EC
:1035D0003C2148432A4940180190006B0290294839
:1035E000006C800700D4C726761C3604360CC82E23
:1035F00042D81724A401A54200D22C0021040022A5
:10360000090C100002F07AFF070037D0786804999F
:103610002200FFF719FA1B490020C8630C9B069A89
:103620000298390005F074FF0090380003F066F846
:103630001448C06B002806D102E01A2007B0F0BD84
:10364000009800280EDA05990020086001984021B2
:1036500000F022F80098002802DA00F093F9EDE774
:10366000FA20EBE7059800680119059801600498B5
:1036700000192D1B0490B7D10020DFE71120DDE7F2
:10368000703C8100A4C3810002490A6810180860D8
:10369000704700001001810070B50478050008290A
:1036A00013D007DC01290BD002290BD0042916D135
:1036B000042008E010290AD0402910D1402002E05F
:1036C000012000E00220044308E00820FBE710206E
:1036D0000443686B002801D003F066FB2C6070BDCA
:1036E00070B505003C20414308480C183C212000DF
:1036F000FFF7C4F9002D04D020003C222900FFF779
:10370000A3F9A0682061606170BD0000703C810079
:10371000FFB50469C1680700601E081883B00190F6
:103720003E488168491C002C816031D005980028F2
:103730006CD00089FD2202900498203081784908DD
:10374000490011408170059E0198728975681119B0
:10375000814232D93248007C80071DD5019829006A
:10376000001B401C0004000C020000902000FFF72A
:103770006BF9009872892918BC68101A002831DD8D
:1037800005042D0C2A002000FFF75EF9641929E0DA
:103790000020C04307B0F0BD00200AE029786D1C6E
:1037A00021700199641C8C4200D9BC68401C000443
:1037B000000C71898142F1D814E0042A06D929004D
:1037C0002000FFF741F9708904190BE0002006E0A2
:1037D0002978401C00042170000C641C6D1C718948
:1037E0008142F5D83668002EAED1B96902983C61A5
:1037F0000818B861059802F081FFB889398B401A22
:1038000001040498090C05F02FF901E0002B01D008
:103810000020BFE7049803F0C7FABBE7A4008100CB
:10382000E8C381007047000070B50D002049030017
:103830001E4CC978002008E03C2242431219126A4B
:10384000002A04D0401C0006000E8842F4D38842AF
:1038500002D30420C04370BD3C214843041968686A
:103860002100E062288C25636062986AA0622800CB
:1038700003F010FA0F49280003F05EFD0E492800FE
:1038800005F0BCF80D49280005F053FA0C49012257
:10389000280004F061FB0320E0610520206208217C
:1038A0002000FFF7F9FE002070BD0000703C810091
:1038B000A40081002538000011370000AD3C000055
:1038C000A93C000001488068006A70475C018100E3
:1038D0003C214843094910B54418206B002803D007
:1038E000216A052902D006E0172010BD03F040F838
:1038F000002020632062002010BD0000703C810089
:10390000F8B50E003C214843114900254418606B6E
:103910002F00002803D003F047FA05002762206B30
:10392000002810D0002E04D0012E06D0022E06D082
:1039300008E003F039FA050004E0012100E000216D
:1039400003F0C2F82762280000F01CF8F8BD000060
:10395000703C81003C214843094910B54418206B54
:10396000002803D0216A052902D006E0172010BDE7
:1039700005F0AEFD002020632062002010BD000095
:10398000703C8100002806D0FF210131081A02494D
:103990000006000E085C7047A60C010070B50120FF
:1039A00002F036FF400701D4012070BD104DA86819
:1039B000006A88300468002002F02AFF0D4A0E4990
:1039C000C30508D51443800402D50C4308200AE03F
:1039D0008C43022007E09443800402D50C4310205E
:1039E00001E08C430420A968096A88310C6070BD2D
:1039F0005C018100008000000000040070B5074CED
:103A000000252070A570E570054825716571006876
:103A1000A11DFFF7A3F8657070BD000088CB810081
:103A20001001810070B5134C05002078002815D0D6
:103A3000A01DFFF789F87D21281AC90088420CD9FA
:103A4000A11D2800FFF78AF8E078A17802020A4356
:103A5000052A08D90020FFF7D1FF70BDA11D28005D
:103A6000FFF77CF870BD521C100AA270E07000F0E5
:103A7000C7F970BD88CB810010B504000020FFF7A6
:103A8000BDFF0748002C07D00121417005480222E4
:103A9000C16A1143C16210BD0021417010BD000018
:103AA00088CB8100A4C38100F8B5274901220A62AE
:103AB000086CC307254804D0C37B5B065B0EC37349
:103AC00003E0C37A5B065B0EC372FFF7FBFE57266B
:103AD0000124A4052670A8272770607B4006400EAD
:103AE000607300252570194840300168C2021143F7
:103AF0000160207F84210843207726702770A07BF7
:103B00004006400EA07325703220FEF7D6EB207FD2
:103B10004006400E2077C820FEF7CEEB26702770B7
:103B2000607B4006400E60732570094805600948B7
:103B3000816804221143816081684907FCD40249ED
:103B400001200862F8BD0000A4C3810040004000CD
:103B50005C01810080604000F8B52E4C60680090E8
:103B60002D48016A012953D00099A268C069891AB9
:103B70004008814203D30098A06005F053FA0098F2
:103B800021697D25401AED00A84203D302F09AF87E
:103B9000009820610098E168401A2049884203D3C8
:103BA0000098E06000F0FEFF1D48C168002908D0C1
:103BB0000099226A891AA94203D3009921624068B8
:103BC0008047184EFF253068F535002816D000983C
:103BD0006169401AA84205D30098606130690028E5
:103BE00000D080470098A169401A0F49884205D348
:103BF0000098A0617069002800D080470098E169B2
:103C0000401AA84201D90098E0610098FFF70AFF26
:103C1000F8BD00000C018100A4C3810088130000DE
:103C2000C8CB810010C4810060EA00000149012076
:103C3000C8637047A4C38100F8B505000026684634
:103C4000067028006946FFF7ADF800280BD06846DB
:103C500000781349020607D54006400E3C22504327
:103C6000401846630662F8BD3C22424354180D4991
:103C7000C9788842F7D2E0690328F4D12D7C20006E
:103C80003C21FEF7FBFE092D08D00A2D06D040216D
:103C90002000FFF701FD26632662F8BD1021F7E73B
:103CA000703C8100A40081000020704738B5846B0F
:103CB0000022002C01D04B6F05E0002038BD521CC3
:103CC0001B681204120C002BF9D1896F03E0521CFF
:103CD00009681204120C0029F9D1002300921A007D
:103CE0001900A047E9E7000070B50D00040009497C
:103CF000280004F083FE0849280005F01AF8074957
:103D00000122280004F028F908212000FFF7C4FC54
:103D1000002070BD11370000AD3C0000A93C000040
:103D200010B5054C23636263A1636061E06A012101
:103D30000843E06210BD0000A4C3810003E00B78DB
:103D40000370401C491C1300521E1204120C002B5D
:103D5000F5D17047144810B5016C00291FD1816B53
:103D60008A00010080398A58002A01D0002010BD45
:103D7000836B01229B00CA50816B0C4B1B6859431B
:103D80000B4BCB180B4909684C69A3604969D307F1
:103D90000B6009498B68022423438B600264006C2A
:103DA0000006000E10BD0000ECCA8100E8C38100CF
:103DB000C024810064018100806040000148807857
:103DC00070470000A4008100F8B50C4F0025BC69C5
:103DD00011E02000FFF730FF200004F06DF8E068EC
:103DE000002D01D0E86000E0B861E6682100022003
:103DF00002F09EFA3400002CEBD1F8BDBC0081002B
:103E000038B5064C0020616800916060200069466A
:103E100000F09AFE0098606038BD000028C4810060
:103E200030B5002587B01C481C4C039504950595BA
:103E300060620C38A062001DE062001D206302F089
:103E400011F9A16A042203A8FEF7FEFD216B0422EA
:103E500004A8FEF7F9FDE16A042205A8FEF7F4FDC7
:103E60000F48616A0622FEF7EFFD0E4805600E4816
:103E700005600B48273802F0D7FA0C480C4902902D
:103E800007480191273805AB04AA03A9009502F061
:103E900093FA07B030BD0000B0C381000C0181006F
:103EA0004FC48100B4008100B8008100F14B0000D4
:103EB0004D4C0000FFB50469C1680500601E0F1875
:103EC00081B00398002640684178027808021043C8
:103ED00002F00FFB0005000F80004142039802F042
:103EE00030FC002802D0002005B0F0BD0398002867
:103EF00037D0002C0DD0E86800280AD003994A89F1
:103F0000486893191E04360C1219BA4213D90022BC
:103F10000DE0039802F0F2FB23E00378401C2370CD
:103F2000641CBC4200D9AC68521C1204120C4B89B0
:103F30009342F2D80BE0002206E00378521C1204F0
:103F4000120C401C2370641C4B899342F5D80968FD
:103F50000029D4D1039802F0D1FBA8692C61801903
:103F6000A8610120C0E70000F7B584B00699069A61
:103F70000D683C2148432E49002640181660002D4C
:103F8000019031D0059800282ED00198006B029046
:103F90002848006C800700D4C726761C3604360CEF
:103FA000C82E40D8B924E400A54200D82C00210432
:103FB0000022090C100002F0A1FA070035D0786841
:103FC00005992200FEF740FD1A490020C8630298B7
:103FD000390002F0E7FC0090380002F08FFB154832
:103FE000C06B002806D102E01A2007B0F0BD00988F
:103FF00000280EDA06990020086001984021FFF79A
:104000004BFB0098002802DAFFF7BCFCEDE7FA2032
:10401000EBE70698006801190698016005980019F9
:104020002D1B0590B9D10020DFE71120DDE700004E
:10403000703C8100A4C38100F7B582B004990026CA
:104040000D683700002D0E6017D00399002914D099
:104050003C21484336494018006B00903548006CBD
:10406000800700D4C7277F1C3F043F0CC82F07D907
:104070000498006800284DD153E01A2005B0F0BD27
:104080000098007C042801D01720F7E72948006C2D
:10409000800701D5FEF7ECFF00984030C48D002C5E
:1040A00006D0244E4436307CC00703D1A54201D946
:1040B0001120E3E7A54200D82C007068A04200D28E
:1040C0000400009803F0E8FC1A484430007CC00764
:1040D00003D02204120C012302E02204120C00235C
:1040E0000399009804F0CAFF060005D0701C0098E0
:1040F0001BD003F0D1FC14E0009803F0CDFC0600C7
:1041000004980068011904980160039800192D1B98
:10411000039001D10020B1E706484430007CC0077D
:10412000A1D13000FFF72EFCA8E703F0B5FCF3E7C0
:10413000703C8100A4C38100FFB504690500C0681C
:10414000611E4718A96B0026002981B0944602D051
:10415000AC68611E4718110006D0002C01D0002861
:1041600004D1080002F0CAFA05B0F0BD4B894868D6
:104170009A191604360C1A19BA420FD9002309E00D
:104180000278401C2270641CBC4200D9AC685B1CE5
:104190001B041B0C4A899A42F2D80BE0002306E06C
:1041A00002785B1C1B041B0C401C2270641C4A8997
:1041B0009A42F5D809680029D8D101200003864227
:1041C00000D90600604602F099FAAF6B002F0DD0BF
:1041D0000498FEF7B9FC00960100AB680A9A280023
:1041E000B8470020A861A8682861BDE7A8692C61CC
:1041F0008019A861B8E70000F7B582B00499049A65
:104200000D680026002D166034D00399002931D0A6
:104210003C21484327494018006B01902648006C18
:10422000800700D4C726761C3604360CC82E3CD82E
:104230001724A401A54200D22C0021040022090C5D
:10424000100002F05BF9070031D078680399220072
:10425000FEF7FAFB18490020C8630198390005F001
:1042600051F90090380002F049FA1348C06B002859
:1042700006D102E01A2005B0F0BD009800280ADA45
:104280000499002008600098002802DAFFF77AFB02
:10429000F1E7FA20EFE7049800680119049801603B
:1042A000039800192D1B0390BDD10020E3E71120D6
:1042B000E1E70000703C8100A4C381000FB410B599
:1042C000044B054A029803A900F048F810BC08BC4A
:1042D00004B01847A01E0000BC0181000FB410B547
:1042E000074B039804A902AA00F038F80400002044
:1042F00002A900F0DFF9200010BC08BC04B0184788
:10430000B546000001C05EE50C0053E10C30DE272D
:104310000330DE3783C08EE01CFF2FE1004870477A
:10432000C0018100020000EA043090E4042042E26F
:10433000043081E4000052E3FAFFFF1A1EFF2FE170
:104340001EFF2FE10000A0E3000052E30420421210
:1043500004008114FBFFFF1A1EFF2FE1FFB58FB091
:104360000500002606E025280AD0129A11999047E8
:104370006D1C761C28780028F5D1300013B0F0BDF4
:104380000024B84A01210294009400E004436D1C0B
:104390002B780800203B98401042F7D128782A2833
:1043A0000ED00222287801003039092916D8029946
:1043B0000A2359431443303940186D1C0290F1E729
:1043C000109802C802910029109004DA01204003DD
:1043D000044348420290022004436D1C28782E2892
:1043E00017D10420044368786D1C2A280CD110983A
:1043F0006D1C02C8009110900BE000990A225143F5
:10440000303940186D1C0090287801003039092996
:10441000F3D928786C2810D006DC4C281AD06828EC
:104420000ED06A2817D104E0742813D07A2812D14C
:1044300010E00120400504430CE00121090501E0E2
:10444000032109050C436978814203D1012000054D
:1044500024186D1C6D1C2878692874D006DC00288F
:104460008BD0632827D0642806D16CE06E2808D052
:1044700073282CD075287AD0129A11999047761CFF
:104480005FE06002400F022809D003280DD0042805
:10449000109801680DD00E60001D109051E010982A
:1044A000F21701680E604A60F6E7109801680E8006
:1044B000F2E70E70F0E710986A460178001D11735C
:1044C00010900020507303A80190012005E010987F
:1044D00002C8019110900020C04361070CD500274D
:1044E00000E07F1C00998F420FDA8742F9DB0199C7
:1044F000C95D0029F5D108E0002700E07F1C874254
:10450000FCDB0199C95D0029F8D10298129BC01B00
:104510000290119A210000F0B7F88019C61907E03F
:10452000019801990078491C129A019111999047BC
:104530007F1EF5D2129B119A0298210000F094F888
:1045400086196D1C16E70A200190109901C9109177
:104550006102490F032901D100040014042901D18B
:1045600000060016002803DA40422D2103E00DE08A
:10457000210504D52B216A461173012103E0E107CF
:1045800013D02021F7E70CAF0C9116E00A20019020
:10459000109901C910916102490F032901D100044A
:1045A000000C042901D10006000E0021EBE701995F
:1045B000FEF720FA30317F1E39700028F7D104A8A9
:1045C000C01B20300190600704D501200004844303
:1045D000009801E0012000900199884201DD401A15
:1045E00000E00020411800900C9809180298401A29
:1045F0000290E00306D4129B119A0298210000F069
:1046000043F8861900200D9008E003A9085C129A6F
:10461000119990470D98401C761C0D900C9988427A
:10462000F3DBE0030CD5129B119A0298210000F0F5
:104630002BF8861904E0129A119930209047761CC5
:104640000099481E00290090F5DC05E03878129AA0
:1046500011997F1C9047761C0199481E00290190F2
:10466000F4DC67E709280100F8B504001E00170014
:104670000025880404D405E039002020B0476D1CD3
:10468000641EF9D52800F8BDFFB581B004001E00F6
:104690000025C80301D5302700E02027880404D571
:1046A00005E003993800B0476D1C641EF9D5280059
:1046B00005B0F0BD0A68531C0B6010707047000015
:1046C00070B51D481D4C0168A06801610169416118
:1046D0000269C1690901103951188161C169006914
:1046E0000901FEF7CBF9A068806901214268C9077A
:1046F0000A434260A068006902680A4310490260E8
:104700000D68A168002210E04368CC6A6405640D5E
:10471000234343608368CC6A544364192343836012
:1047200003001033C3601800521CCB699342EBD8CE
:1047300008698969C86070BD4C0181005C01810015
:104740004801810010B51448144C0168A06801604C
:10475000016841600268C16809011039511881601F
:10476000C16800680901FEF789F9A0688068012224
:104770004168D20711434160A3681868002104E032
:1047800002001032C2601000491CDA688A42F7D871
:1047900018689968C86010BD440181005C018100FF
:1047A000F7B5060084B07DD0069840892B287AD3CF
:1047B0000698456801202C000F3400F02EFC61782B
:1047C00022780902114388427FD1424800F025FC3B
:1047D00001006079227900021043814275D10120E5
:1047E000C00200F01AFCE178A27809021143884265
:1047F0006BD1394800F011FCAA7B6B7B01001002E1
:104800001843814261D121000E31042202A8009197
:10481000FEF71AF921001831042203A80191FEF7CE
:1048200013F97068002804D00399814203D101274D
:1048300002E0002704E00027002F01D0012300E060
:10484000002322000832300002A904F0EBFEE079D8
:10485000A1790002084300F0E0FB012802D0022801
:1048600033D128E0002F30D0022000F0D6FBA07119
:10487000000AE071009901980422FEF7E5F800981B
:104880000422311DFEF7E0F80621491E0906090E33
:104890006018027A6B1882745A70059A525C027220
:1048A000059801E014E010E0405C0029D871ECD1DB
:1048B000B269069907E009480168002905D0C26875
:1048C000002A02D002A930009047069801F016FF96
:1048D00007B0F0BD040600000608000010C4810007
:1048E00070B5050012D04C6820001B300600FEF7A2
:1048F0002BF90100A8686A6801400240914205D185
:104900000023E21D3100280004F08CFE70BD000081
:10491000FEB50D00040016000F21280001F011FF64
:10492000002802D00120C043FEBD2100300000F06D
:104930002FFD002801D0284B2EE03000FEF704F9AF
:1049400007000F20000701F0D0FD074007204007B7
:1049500001F0CBFD874226D1012069460870002076
:1049600048705E2088703000FEF7EEF801F0BDFD63
:104970004002400E6946C8703000FEF7E5F801F0CD
:10498000B4FD000A694608713000FEF7DDF801F059
:10499000ACFD69466B464871220027322900200091
:1049A00000F0E4F8FEBD3000FEF7CEF80100A0688C
:1049B000626801400240914204D0E068002807D0BC
:1049C00026000C362A003100200000F007F8FEBD5A
:1049D0000320C043FEBD0000D50C0100F7B582B036
:1049E00002980E00273001900020C04300900299E9
:1049F0001400300000F0CCFC002827D13000FEF776
:104A0000A3F805000F20000701F06FFD0540072007
:104A1000400701F06AFD854218D0002E16D0300004
:104A2000FEF792F8002811D00121300000F078F94B
:104A300000280DDB144F050178682818817A0029B9
:104A400008D0012908D0002C06D00EE00920C04370
:104A500005B0F0BD01218172FFF7E8F8029831003E
:104A600000F072F8002C00900BD078682B18987A20
:104A7000022806D1019A029821001B1D00F076F849
:104A800000900098E4E7000050018100FFB51F008E
:104A900000222B21032081B001F030FD06004BD015
:104AA00075680D982C000F3400F0B7FAA071000A59
:104AB000E0710620401E0006000E3A5C21180A72C2
:104AC0000B9A125C8A7403990A5C291800284A70B0
:104AD000029A125CCA71EDD120000A9904220E30AC
:104AE000FDF7B2FF20000C9904221830FDF7ACFF4F
:104AF000012000F092FA2070000A60700120C002CC
:104B000000F08BFAA070000AE0700D4800F085FA02
:104B10002071000A60710B4800F07FFA6873000A88
:104B2000A87301983100826990470400300001F0B9
:104B3000E5FD200005B0F0BD0020C043FAE700000D
:104B400004060000060800001FB50123064C03936D
:104B5000021D03002733009202911900A21F019445
:104B6000FFF794FF04B010BDDB0C0100F8B54D68F1
:104B70000E0007000624641E2406240E195D281961
:104B8000002C4170115DC171F5D10120C00200F00F
:104B900044FA6873000AA873BA6931003800904774
:104BA000F8BD000030B51049104D4C68002016E0EB
:104BB00001010919CA7A521C1206120ECA728B7AA6
:104BC000022B02D0012B03D006E0F02A02D203E030
:104BD000022A01D300228A72401C0006000EE968F6
:104BE0008142E5D830BD000050018100E8C381005A
:104BF00070B5040040680D00817B427B08021043C1
:104C000000F00BFA0121C902401A02D006280BD18C
:104C100013E021002800FFF763FE0E21C9432000A6
:104C200001F08FFD002803D0200001F067FD0AE0AD
:104C30002900200000F07AFC05E02900220027313D
:104C40002800FFF7ADFD002070BD000010B5C16168
:104C50000100652220318A736E22CA7303494161C3
:104C60000349816101F076F8002010BD1149000070
:104C7000B15F000070B527490500C86B002848D017
:104C80002548026C2548D3070CD0C37B5B065B0E1E
:104C9000C373C37B5B065B0EC373C37B5B065B0E98
:104CA000C3730BE0C37A5B065B0EC372C37A5B0609
:104CB0005B0EC372C37A5B065B0EC372C96BD3070C
:104CC0000906090E8022002B03D0C37B1343C37354
:104CD00002E0C37A1343C37200291AD0280001F0FE
:104CE00099F8040015D06068817B427B080210436C
:104CF00000F093F90121C902401A01D0062805D11C
:104D00002A69290020009047002802D0200001F0E5
:104D1000F5FC70BDECCA8100A4C3810040004000D6
:104D2000F3B5454887B0C668002437063F164349A7
:104D3000009707980394019705944D68002850D078
:104D4000080000780490000102904019807A02283F
:104D500047D10798FDF7F8FE02996958884240D17B
:104D60000498000665E0BE4204D120014019807A13
:104D7000002809D02001049040190290807A01286F
:104D800005D0022818D029E027063F1626E007980C
:104D9000002807D0FDF7D8FE04996958884201D150
:104DA000264844E002980399C07A884216D3210627
:104DB00009160091039011E00798002805D0FDF72F
:104DC000C3FE049969588842EAD002980599C07ACE
:104DD000884203D32106091601910590641C24061C
:104DE000240EA642BFD80020C043BE4202D108997B
:104DF000C9071FD0089989071CD4BE4202D93C06B6
:104E0000240E07E001998E4202D800998E4211D9F2
:104E10000C06240E260100207719B8720798002886
:104E200002D0FDF791FEA85104480021F9720470E8
:104E30002006001609B0F0BDE8C3810050018100D2
:104E4000034904208968096A8831086070470000B6
:104E50005C01810070B50B4DA868006A0468E0072A
:104E600001D001F0EDFDE00605D5A8684168C968EC
:104E7000416000202860A00503D5FEF78FFDFDF7F7
:104E80007FFF70BD5C0181001CB501210903019009
:104E900004480091026804490448012300F008F81E
:104EA0001CBD0000E8C38100908300002341000086
:104EB000FFB5364C1D00606817000E00002881B059
:104EC00062D0A06800285FD0006A042188300160A9
:104ED000FFF738FCA068C762FFF7F2FB0B99A068E8
:104EE00081620168006A0162A0680169006A41622A
:104EF000A0682749006A274B416018688278417989
:104F000012068918C27800791204000210180818D5
:104F1000A168096AC8601868017840780902081811
:104F2000A1680004096A000C8860A0680A99006AF8
:104F30008162A068006AC562A068006A06630120F9
:104F400001F066FC002001F063FCA268116A124BBC
:104F500088310968C50501D5194300E099438304E8
:104F60000E4801D5014300E08143106A883001609A
:104F7000A068016A019A88310968006A1143012218
:104F8000520411438830016005B0F0BD5C0181001E
:104F9000B303000030018100008000000000040025
:104FA00070B5164C0D000600A06840680068002827
:104FB00001DAFDF7D5FEA168486886604868416857
:104FC000C90FC9074160A06840686A050B234168A2
:104FD000520DDB061A4311434160A168180149686C
:104FE0000860A068016A898D0905090F02D1006A6D
:104FF000491E81610120206070BD00005C018100BC
:10500000FF2212020300134001061B021943030A88
:1050100013401943000E084370470106090C000AAB
:10502000084370470A0010B5032100F0FBF810BDDB
:10503000F3B5446805006078217887B00002084322
:1050400001F057FA0005000F80004142009028004F
:10505000029101F076FB002825D12889042822D36B
:105060006E683078032802D00828F5D11CE0307A29
:10507000310008310090707C327C0F000002104338
:10508000040A0422103105A8FDF7DEFC00987378AD
:105090000007800E38188178C07822000902014389
:1050A0000598FEF73DFEB6E0200010300126019085
:1050B000FDF74AFD07000F20000701F016FA074030
:1050C0000720400701F011FA874200D10026089915
:1050D000019800F05DF9002800D00026FEF76EFE72
:1050E00000287DD0002E7BD02889082878D328007E
:1050F00000F0DAF8002873D12221280001F021FB0A
:1051000000281DD00099280001F01BFB002867D162
:1051100029890022022001F0F1F906007BD0290044
:1051200001F09EFA002876D174680299300001F0EF
:1051300008FB00286FD1280001F0E0FA350006E0F6
:105140002121C943280001F0FCFA002863D1200086
:105150006E680C3003900490FDF7F6FC0700059094
:10516000200010300190FDF7EFFC0499FDF7F6FCEC
:1051700001993800FDF7F2FC002729483770FFF746
:105180004CFF0100F078B278000210430122D202F5
:10519000814208D81000FFF740FFF178B278090289
:1051A0001143401C06E01000FFF737FFF178B2789A
:1051B000090211434018B070000AF070607A217A39
:1051C0000002084301F095F900060121000EC90311
:1051D0004018FFF722FF2072000A6072A77200E0F9
:1051E00019E0380AE0721421200000F056F8A0728D
:1051F000000AE0720099280001F0A3FA00280AD101
:10520000089801210191029003998023002228002F
:10521000009700F0D7FA280001F070FA09B0F0BD4D
:10522000FFF70000F7B50E0000222421012082B014
:1052300001F064F9050028D002986C684768267070
:1052400004980026607026716671A671E671029856
:105250001C22416868680830FDF7F6FB300AA6702A
:10526000E0706989200000F018F8A070000AE07072
:1052700001203A00019080230C3200212800009682
:1052800000F086FA280001F039FA05B0F0BD0A00F6
:1052900010B50B21FFF7C6FF10BD10B500F0F0FEF2
:1052A000C0430004000C10BDF8B500240500260022
:1052B000012715E06989686800F0E2FE0019010C19
:1052C0000004000C0C18A87AC00708D0B81B06060A
:1052D0002006000C2104360E090E04000C432D6834
:1052E000002DE7D1002E05D02006000C2104090E68
:1052F00004000C43E0430004000CF8BDFFB500249B
:1053000005002600012781B015E06989686800F072
:10531000B7FE0019010C0004000C0C18A87AC00795
:1053200008D0B81B06062006000C2104360E090E14
:1053300004000C432D68002DE7D1002E05D0200677
:10534000000C2104090E04000C430298FDF7FCFB3D
:105350000104090C0919000C44180398FDF7F4FB2B
:105360000104090C0919000C44180498FFF755FEB4
:1053700004190A98FFF751FE0019010C0004000CF3
:105380000818010C0818C0430004000C05B0F0BD5B
:1053900010B50C00FDF7D8FB0200411C13D0002A09
:1053A00011D02D21095D89070BD56168914208D084
:1053B000A0681300034001408B4202D11043401CFF
:1053C00001D0002010BD012010BDF7B504008AB047
:1053D0000B981425808C0026009060680690C17997
:1053E00082790802104301F084F8C104C90C0191CC
:1053F00001214903084007902089143807040098C8
:105400003F0C1438C117490F089008184003000CCE
:10541000029082E00898874201DC012000E0002031
:105420000199079AC904C90C1143002804911BD0A3
:1054300038000004000C059000221421022001F025
:105440005DF80028009017D0406806991422FDF7F7
:10545000FBFA0098406803906068401960606089BA
:10546000401B6081059D26E0080001214903084397
:1054700004900298C000DCE70020C0430DB0F0BDEE
:105480006689AE4200D92E00002E13D002220021E0
:10549000032001F033F8010044D0606848600E81B9
:1054A0004E81009801F0B6F8A81B05042D0C04D01D
:1054B0002468E5E72468002DE2D104983500FFF761
:1054C000ACFD03998871000AC87105981430000476
:1054D000000CFFF7A2FD03998870000AC8700398BA
:1054E00000218172C17203981421FFF7D6FE03993F
:1054F0008872000AC8720B980C9A43690099984701
:10550000009801F0FBF805980299381A07040198F1
:105510003F0C40180004000C0190002F00D079E7E8
:105520000020ABE7009801F0E9F8A5E7F3B501200A
:1055300085B0039005980E004568687829780002C8
:10554000084300F0D6FF000B042803D0059801F0B3
:10555000D5F812E1687829780002084300F0C9FF05
:105560000005000F80000090E878A9780002084349
:1055700000F0BFFF04000598418900988142E5D3FF
:1055800005980089A042E1D300992800FFF785FE25
:105590000028DBD10598210001F008F901200290D4
:1055A0002800103001900F203400000700F09DFF0C
:1055B0000720400700F099FF200000F021FF00289D
:1055C0001ED0201D1CD06768002F19D00198FDF750
:1055D000BBFAB84223D001982100FFF7D9FE00287A
:1055E0001DD10198FDF7B0FA07000F20000700F069
:1055F0007CFF07400720400700F077FF87420ED06E
:105600000298002804D0002002905D48046800E061
:105610002468B44200D12468002CCDD101E0002CD4
:105620002FD1687A297A0002084300F062FF000651
:10563000000E11280ED100982818C178827808022F
:10564000104300F056FF442804D100203400002EFF
:10565000039016D1687A297A0002084300F049FFC6
:105660000006000E11280CD100982818C178827805
:105670000802104300F03DFF4249884201D1340046
:105680001FE0039800281CD028000C300700FDF70D
:105690005BFA002815D031003800FFF779FE0028AA
:1056A00000D053E73800FDF74FFA07000F2000073E
:1056B00000F01BFF07400720400700F016FF87425D
:1056C000EFD0002CEDD03048FFF7A7FCE979AA799C
:1056D00009021143084206D0059800F0FBF80028A3
:1056E00005904BD04568294C31006660A56005984F
:1056F00001F0ECF800283DD1687A297A00020843CD
:1057000000F0F7FE0006000E012816D006280FD084
:10571000112808D02800310010300600FFF738FEAD
:1057200000280FD023E00598310003F0B5FD21E0FB
:105730000598310001F038FE1CE005983100FFF7B4
:1057400077FC17E03000FDF7FFF906000F20000797
:1057500000F0CBFE06400720400700F0C6FE864260
:1057600005D00598022145600598FFF75BFC059878
:1057700000F0C4FF00206060A060002007B0F0BD12
:10578000B40081006C070000FF3F0000A40181000D
:10579000FFB583B00C9D0D9C1F001600100000F09B
:1057A000AFFA00280AD00290049903983B00320017
:1057B0000095019400F006F807B0F0BD0320C04347
:1057C000FAE70000FFB5060081B003980C9D1F00AA
:1057D000002867D0142001000090300000F0B1FFD5
:1057E000002803D00120C04305B0F0BD7468607A82
:1057F000217A0002084300F07CFE0006000E390208
:105800000843FFF70AFC010A2072617200F071FE82
:105810000B99000A00020843FFF7FFFB2072000A01
:1058200060720398FDF790F921001031FDF796F9A9
:105830000A99052000020843012189030843000456
:10584000000CFFF7EAFB2070000A60703089FFF758
:10585000E4FBA070000AE07000201D4FA071E07111
:105860003888FFF7DAFB2071000A60713888401C25
:1058700038800298002803D0FDF766F9002802D18D
:10588000281D00D0686821000C31FDF767F9002061
:10589000A072E07200992000FFF7FFFCA072000ADE
:1058A000E07202E0706810300390A88C002808D0E5
:1058B0003189814205D9039A29003000FFF785FD1F
:1058C00092E76B693100039A280098478CE7000043
:1058D000A4018100F1B584B0049800264568687879
:1058E00029780002084300F004FE0005000F052897
:1058F0007ED1E879A9790002084300F0FAFDC004DE
:10590000000C0090E878A9780002084300F0F1FD4F
:105910000400687829780002084300F0EAFD0005D9
:10592000000F8000201A0004000C0190049800F081
:105930008DFE5D4A07005B48127C01885206C9193A
:10594000120F914254D8446828000C300390001D77
:10595000029014E00398FDF7F7F8616988420CD1D2
:105960000298FDF7F1F8A169884206D168792A7991
:10597000A18900021043814204D026002468002C33
:10598000E8D10AE0002C08D0E879A97900020843A0
:1059900000F0AFFDC00417D021E0052000F0FEFCB0
:1059A00004000ED02021FDF769F80320E0773D4880
:1059B0001422416821604460200029000830FDF76E
:1059C00043F8002C69D00AE0E08900F092FDC004A1
:1059D00005D02000142229000830FDF735F83148A1
:1059E0000188C9190180E879A9790002084300E01B
:1059F00053E000F07EFD800407D4A07F012108431E
:105A0000A077019900984018A0830499200000F025
:105A10004DF800283FD0A08B1430A0836068456803
:105A20002800FDF791F80700210014220831280012
:105A3000FDF70AF8A08BFFF7F0FAA870000AE870EB
:105A40000020A871E871A872E87214212800FFF7FD
:105A500024FCA872000AE872606804900DE013212B
:105A60007D68C943380000F06CFE0498390000F0EE
:105A7000D1FD2800FDF768F80700002FEFD13100B5
:105A8000200000F0D1F8049800F0E0FD05490A88F4
:105A9000101A0880049805B0F0BD049800F02EFE9E
:105AA0000020F8E7B0018100E8C38100F3B583B0BE
:105AB0000498002446680127F078B1780002084372
:105AC00000F017FD0500707831780002084300F0FF
:105AD00010FD0005000F80002D1AF079B179000249
